{
  "_format": "hh-sol-artifact-1",
  "contractName": "RealKittyNFT",
  "sourceName": "contracts/RealKittyNFT.sol",
  "abi": [
    {
      "inputs": [],
      "stateMutability": "nonpayable",
      "type": "constructor"
    },
    {
      "anonymous": false,
      "inputs": [
        {
          "indexed": true,
          "internalType": "address",
          "name": "owner",
          "type": "address"
        },
        {
          "indexed": true,
          "internalType": "address",
          "name": "approved",
          "type": "address"
        },
        {
          "indexed": true,
          "internalType": "uint256",
          "name": "tokenId",
          "type": "uint256"
        }
      ],
      "name": "Approval",
      "type": "event"
    },
    {
      "anonymous": false,
      "inputs": [
        {
          "indexed": true,
          "internalType": "address",
          "name": "owner",
          "type": "address"
        },
        {
          "indexed": true,
          "internalType": "address",
          "name": "operator",
          "type": "address"
        },
        {
          "indexed": false,
          "internalType": "bool",
          "name": "approved",
          "type": "bool"
        }
      ],
      "name": "ApprovalForAll",
      "type": "event"
    },
    {
      "anonymous": false,
      "inputs": [
        {
          "indexed": true,
          "internalType": "address",
          "name": "previousOwner",
          "type": "address"
        },
        {
          "indexed": true,
          "internalType": "address",
          "name": "newOwner",
          "type": "address"
        }
      ],
      "name": "OwnershipTransferred",
      "type": "event"
    },
    {
      "anonymous": false,
      "inputs": [
        {
          "indexed": true,
          "internalType": "address",
          "name": "from",
          "type": "address"
        },
        {
          "indexed": true,
          "internalType": "address",
          "name": "to",
          "type": "address"
        },
        {
          "indexed": true,
          "internalType": "uint256",
          "name": "tokenId",
          "type": "uint256"
        }
      ],
      "name": "Transfer",
      "type": "event"
    },
    {
      "inputs": [],
      "name": "MAX_PUBLIC_MINT",
      "outputs": [
        {
          "internalType": "uint256",
          "name": "",
          "type": "uint256"
        }
      ],
      "stateMutability": "view",
      "type": "function"
    },
    {
      "inputs": [],
      "name": "MAX_SUPPLY",
      "outputs": [
        {
          "internalType": "uint256",
          "name": "",
          "type": "uint256"
        }
      ],
      "stateMutability": "view",
      "type": "function"
    },
    {
      "inputs": [],
      "name": "PRICE_PER_TOKEN",
      "outputs": [
        {
          "internalType": "uint256",
          "name": "",
          "type": "uint256"
        }
      ],
      "stateMutability": "view",
      "type": "function"
    },
    {
      "inputs": [
        {
          "internalType": "address",
          "name": "to",
          "type": "address"
        },
        {
          "internalType": "uint256",
          "name": "tokenId",
          "type": "uint256"
        }
      ],
      "name": "approve",
      "outputs": [],
      "stateMutability": "nonpayable",
      "type": "function"
    },
    {
      "inputs": [
        {
          "internalType": "address",
          "name": "owner",
          "type": "address"
        }
      ],
      "name": "balanceOf",
      "outputs": [
        {
          "internalType": "uint256",
          "name": "",
          "type": "uint256"
        }
      ],
      "stateMutability": "view",
      "type": "function"
    },
    {
      "inputs": [
        {
          "internalType": "uint256",
          "name": "tokenId",
          "type": "uint256"
        }
      ],
      "name": "getApproved",
      "outputs": [
        {
          "internalType": "address",
          "name": "",
          "type": "address"
        }
      ],
      "stateMutability": "view",
      "type": "function"
    },
    {
      "inputs": [
        {
          "internalType": "address",
          "name": "owner",
          "type": "address"
        },
        {
          "internalType": "address",
          "name": "operator",
          "type": "address"
        }
      ],
      "name": "isApprovedForAll",
      "outputs": [
        {
          "internalType": "bool",
          "name": "",
          "type": "bool"
        }
      ],
      "stateMutability": "view",
      "type": "function"
    },
    {
      "inputs": [],
      "name": "isMintActive",
      "outputs": [
        {
          "internalType": "bool",
          "name": "",
          "type": "bool"
        }
      ],
      "stateMutability": "view",
      "type": "function"
    },
    {
      "inputs": [
        {
          "internalType": "uint256",
          "name": "nNewTokens",
          "type": "uint256"
        }
      ],
      "name": "mint",
      "outputs": [],
      "stateMutability": "payable",
      "type": "function"
    },
    {
      "inputs": [],
      "name": "name",
      "outputs": [
        {
          "internalType": "string",
          "name": "",
          "type": "string"
        }
      ],
      "stateMutability": "view",
      "type": "function"
    },
    {
      "inputs": [],
      "name": "owner",
      "outputs": [
        {
          "internalType": "address",
          "name": "",
          "type": "address"
        }
      ],
      "stateMutability": "view",
      "type": "function"
    },
    {
      "inputs": [
        {
          "internalType": "uint256",
          "name": "tokenId",
          "type": "uint256"
        }
      ],
      "name": "ownerOf",
      "outputs": [
        {
          "internalType": "address",
          "name": "",
          "type": "address"
        }
      ],
      "stateMutability": "view",
      "type": "function"
    },
    {
      "inputs": [],
      "name": "renounceOwnership",
      "outputs": [],
      "stateMutability": "nonpayable",
      "type": "function"
    },
    {
      "inputs": [
        {
          "internalType": "address",
          "name": "to",
          "type": "address"
        }
      ],
      "name": "safeMint",
      "outputs": [],
      "stateMutability": "nonpayable",
      "type": "function"
    },
    {
      "inputs": [
        {
          "internalType": "address",
          "name": "from",
          "type": "address"
        },
        {
          "internalType": "address",
          "name": "to",
          "type": "address"
        },
        {
          "internalType": "uint256",
          "name": "tokenId",
          "type": "uint256"
        }
      ],
      "name": "safeTransferFrom",
      "outputs": [],
      "stateMutability": "nonpayable",
      "type": "function"
    },
    {
      "inputs": [
        {
          "internalType": "address",
          "name": "from",
          "type": "address"
        },
        {
          "internalType": "address",
          "name": "to",
          "type": "address"
        },
        {
          "internalType": "uint256",
          "name": "tokenId",
          "type": "uint256"
        },
        {
          "internalType": "bytes",
          "name": "_data",
          "type": "bytes"
        }
      ],
      "name": "safeTransferFrom",
      "outputs": [],
      "stateMutability": "nonpayable",
      "type": "function"
    },
    {
      "inputs": [
        {
          "internalType": "address",
          "name": "operator",
          "type": "address"
        },
        {
          "internalType": "bool",
          "name": "approved",
          "type": "bool"
        }
      ],
      "name": "setApprovalForAll",
      "outputs": [],
      "stateMutability": "nonpayable",
      "type": "function"
    },
    {
      "inputs": [
        {
          "internalType": "string",
          "name": "baseURI",
          "type": "string"
        }
      ],
      "name": "setBaseURI",
      "outputs": [],
      "stateMutability": "nonpayable",
      "type": "function"
    },
    {
      "inputs": [
        {
          "internalType": "bool",
          "name": "newState",
          "type": "bool"
        }
      ],
      "name": "setIsMintActive",
      "outputs": [],
      "stateMutability": "nonpayable",
      "type": "function"
    },
    {
      "inputs": [
        {
          "internalType": "bytes4",
          "name": "interfaceId",
          "type": "bytes4"
        }
      ],
      "name": "supportsInterface",
      "outputs": [
        {
          "internalType": "bool",
          "name": "",
          "type": "bool"
        }
      ],
      "stateMutability": "view",
      "type": "function"
    },
    {
      "inputs": [],
      "name": "symbol",
      "outputs": [
        {
          "internalType": "string",
          "name": "",
          "type": "string"
        }
      ],
      "stateMutability": "view",
      "type": "function"
    },
    {
      "inputs": [
        {
          "internalType": "uint256",
          "name": "index",
          "type": "uint256"
        }
      ],
      "name": "tokenByIndex",
      "outputs": [
        {
          "internalType": "uint256",
          "name": "",
          "type": "uint256"
        }
      ],
      "stateMutability": "view",
      "type": "function"
    },
    {
      "inputs": [
        {
          "internalType": "address",
          "name": "owner",
          "type": "address"
        },
        {
          "internalType": "uint256",
          "name": "index",
          "type": "uint256"
        }
      ],
      "name": "tokenOfOwnerByIndex",
      "outputs": [
        {
          "internalType": "uint256",
          "name": "",
          "type": "uint256"
        }
      ],
      "stateMutability": "view",
      "type": "function"
    },
    {
      "inputs": [
        {
          "internalType": "uint256",
          "name": "tokenId",
          "type": "uint256"
        }
      ],
      "name": "tokenURI",
      "outputs": [
        {
          "internalType": "string",
          "name": "",
          "type": "string"
        }
      ],
      "stateMutability": "view",
      "type": "function"
    },
    {
      "inputs": [],
      "name": "totalSupply",
      "outputs": [
        {
          "internalType": "uint256",
          "name": "",
          "type": "uint256"
        }
      ],
      "stateMutability": "view",
      "type": "function"
    },
    {
      "inputs": [
        {
          "internalType": "address",
          "name": "from",
          "type": "address"
        },
        {
          "internalType": "address",
          "name": "to",
          "type": "address"
        },
        {
          "internalType": "uint256",
          "name": "tokenId",
          "type": "uint256"
        }
      ],
      "name": "transferFrom",
      "outputs": [],
      "stateMutability": "nonpayable",
      "type": "function"
    },
    {
      "inputs": [
        {
          "internalType": "address",
          "name": "newOwner",
          "type": "address"
        }
      ],
      "name": "transferOwnership",
      "outputs": [],
      "stateMutability": "nonpayable",
      "type": "function"
    },
    {
      "inputs": [
        {
          "internalType": "address",
          "name": "",
          "type": "address"
        }
      ],
      "name": "walletMints",
      "outputs": [
        {
          "internalType": "uint256",
          "name": "",
          "type": "uint256"
        }
      ],
      "stateMutability": "view",
      "type": "function"
    },
    {
      "inputs": [],
      "name": "withdraw",
      "outputs": [],
      "stateMutability": "nonpayable",
      "type": "function"
    },
    {
      "inputs": [],
      "name": "withdrawWallet",
      "outputs": [
        {
          "internalType": "address payable",
          "name": "",
          "type": "address"
        }
      ],
      "stateMutability": "view",
      "type": "function"
    }
  ],
  "bytecode": "0x60806040526000600f60006101000a81548160ff0219169083151502179055503480156200002c57600080fd5b506040518060400160405280600c81526020017f5265616c4b697474794e465400000000000000000000000000000000000000008152506040518060400160405280600481526020017f524b544e000000000000000000000000000000000000000000000000000000008152508160009080519060200190620000b1929190620001c1565b508060019080519060200190620000ca929190620001c1565b505050620000ed620000e1620000f360201b60201c565b620000fb60201b60201c565b620002d6565b600033905090565b6000600a60009054906101000a900473ffffffffffffffffffffffffffffffffffffffff16905081600a60006101000a81548173ffffffffffffffffffffffffffffffffffffffff021916908373ffffffffffffffffffffffffffffffffffffffff1602179055508173ffffffffffffffffffffffffffffffffffffffff168173ffffffffffffffffffffffffffffffffffffffff167f8be0079c531659141344cd1fd0a4f28419497f9722a3daafe3b4186f6b6457e060405160405180910390a35050565b828054620001cf9062000271565b90600052602060002090601f016020900481019282620001f357600085556200023f565b82601f106200020e57805160ff19168380011785556200023f565b828001600101855582156200023f579182015b828111156200023e57825182559160200191906001019062000221565b5b5090506200024e919062000252565b5090565b5b808211156200026d57600081600090555060010162000253565b5090565b600060028204905060018216806200028a57607f821691505b60208210811415620002a157620002a0620002a7565b5b50919050565b7f4e487b7100000000000000000000000000000000000000000000000000000000600052602260045260246000fd5b61420480620002e66000396000f3fe6080604052600436106101cd5760003560e01c806365f13097116100f7578063a0712d6811610095578063e985e9c511610064578063e985e9c514610669578063f0293fd3146106a6578063f2fde38b146106e3578063fa4e25b41461070c576101cd565b8063a0712d68146105be578063a22cb465146105da578063b88d4fde14610603578063c87b56dd1461062c576101cd565b8063833b9499116100d1578063833b94991461051257806385d178f41461053d5780638da5cb5b1461056857806395d89b4114610593576101cd565b806365f130971461049357806370a08231146104be578063715018a6146104fb576101cd565b806332cb6b0c1161016f5780634f6ccce71161013e5780634f6ccce7146103c557806355f804b3146104025780635b92ac0d1461042b5780636352211e14610456576101cd565b806332cb6b0c146103315780633ccfd60b1461035c57806340d097c31461037357806342842e0e1461039c576101cd565b8063095ea7b3116101ab578063095ea7b31461027757806318160ddd146102a057806323b872dd146102cb5780632f745c59146102f4576101cd565b806301ffc9a7146101d257806306fdde031461020f578063081812fc1461023a575b600080fd5b3480156101de57600080fd5b506101f960048036038101906101f49190612dc2565b610735565b6040516102069190613383565b60405180910390f35b34801561021b57600080fd5b50610224610747565b604051610231919061339e565b60405180910390f35b34801561024657600080fd5b50610261600480360381019061025c9190612e55565b6107d9565b60405161026e9190613301565b60405180910390f35b34801561028357600080fd5b5061029e60048036038101906102999190612d5d565b61085e565b005b3480156102ac57600080fd5b506102b5610976565b6040516102c291906136c0565b60405180910390f35b3480156102d757600080fd5b506102f260048036038101906102ed9190612c57565b610983565b005b34801561030057600080fd5b5061031b60048036038101906103169190612d5d565b6109e3565b60405161032891906136c0565b60405180910390f35b34801561033d57600080fd5b50610346610a88565b60405161035391906136c0565b60405180910390f35b34801561036857600080fd5b50610371610a8d565b005b34801561037f57600080fd5b5061039a60048036038101906103959190612bf2565b610bda565b005b3480156103a857600080fd5b506103c360048036038101906103be9190612c57565b610c7c565b005b3480156103d157600080fd5b506103ec60048036038101906103e79190612e55565b610c9c565b6040516103f991906136c0565b60405180910390f35b34801561040e57600080fd5b5061042960048036038101906104249190612e14565b610d33565b005b34801561043757600080fd5b50610440610dc9565b60405161044d9190613383565b60405180910390f35b34801561046257600080fd5b5061047d60048036038101906104789190612e55565b610ddc565b60405161048a9190613301565b60405180910390f35b34801561049f57600080fd5b506104a8610e8e565b6040516104b591906136c0565b60405180910390f35b3480156104ca57600080fd5b506104e560048036038101906104e09190612bf2565b610e93565b6040516104f291906136c0565b60405180910390f35b34801561050757600080fd5b50610510610f4b565b005b34801561051e57600080fd5b50610527610fd3565b60405161053491906136c0565b60405180910390f35b34801561054957600080fd5b50610552610fde565b60405161055f919061331c565b60405180910390f35b34801561057457600080fd5b5061057d611004565b60405161058a9190613301565b60405180910390f35b34801561059f57600080fd5b506105a861102e565b6040516105b5919061339e565b60405180910390f35b6105d860048036038101906105d39190612e55565b6110c0565b005b3480156105e657600080fd5b5061060160048036038101906105fc9190612d21565b6112dd565b005b34801561060f57600080fd5b5061062a60048036038101906106259190612ca6565b6112f3565b005b34801561063857600080fd5b50610653600480360381019061064e9190612e55565b611355565b604051610660919061339e565b60405180910390f35b34801561067557600080fd5b50610690600480360381019061068b9190612c1b565b6113fc565b60405161069d9190613383565b60405180910390f35b3480156106b257600080fd5b506106cd60048036038101906106c89190612bf2565b611490565b6040516106da91906136c0565b60405180910390f35b3480156106ef57600080fd5b5061070a60048036038101906107059190612bf2565b6114a8565b005b34801561071857600080fd5b50610733600480360381019061072e9190612d99565b6115a0565b005b600061074082611639565b9050919050565b6060600080546107569061398d565b80601f01602080910402602001604051908101604052809291908181526020018280546107829061398d565b80156107cf5780601f106107a4576101008083540402835291602001916107cf565b820191906000526020600020905b8154815290600101906020018083116107b257829003601f168201915b5050505050905090565b60006107e4826116b3565b610823576040517f08c379a000000000000000000000000000000000000000000000000000000000815260040161081a906135a0565b60405180910390fd5b6004600083815260200190815260200160002060009054906101000a900473ffffffffffffffffffffffffffffffffffffffff169050919050565b600061086982610ddc565b90508073ffffffffffffffffffffffffffffffffffffffff168373ffffffffffffffffffffffffffffffffffffffff1614156108da576040517f08c379a00000000000000000000000000000000000000000000000000000000081526004016108d190613620565b60405180910390fd5b8073ffffffffffffffffffffffffffffffffffffffff166108f961171f565b73ffffffffffffffffffffffffffffffffffffffff16148061092857506109278161092261171f565b6113fc565b5b610967576040517f08c379a000000000000000000000000000000000000000000000000000000000815260040161095e90613500565b60405180910390fd5b6109718383611727565b505050565b6000600880549050905090565b61099461098e61171f565b826117e0565b6109d3576040517f08c379a00000000000000000000000000000000000000000000000000000000081526004016109ca90613660565b60405180910390fd5b6109de8383836118be565b505050565b60006109ee83610e93565b8210610a2f576040517f08c379a0000000000000000000000000000000000000000000000000000000008152600401610a26906133c0565b60405180910390fd5b600660008473ffffffffffffffffffffffffffffffffffffffff1673ffffffffffffffffffffffffffffffffffffffff168152602001908152602001600020600083815260200190815260200160002054905092915050565b606481565b610a9561171f565b73ffffffffffffffffffffffffffffffffffffffff16610ab3611004565b73ffffffffffffffffffffffffffffffffffffffff1614610b09576040517f08c379a0000000000000000000000000000000000000000000000000000000008152600401610b00906135c0565b60405180910390fd5b6000600d60009054906101000a900473ffffffffffffffffffffffffffffffffffffffff1673ffffffffffffffffffffffffffffffffffffffff1647604051610b51906132ec565b60006040518083038185875af1925050503d8060008114610b8e576040519150601f19603f3d011682016040523d82523d6000602084013e610b93565b606091505b5050905080610bd7576040517f08c379a0000000000000000000000000000000000000000000000000000000008152600401610bce906136a0565b60405180910390fd5b50565b610be261171f565b73ffffffffffffffffffffffffffffffffffffffff16610c00611004565b73ffffffffffffffffffffffffffffffffffffffff1614610c56576040517f08c379a0000000000000000000000000000000000000000000000000000000008152600401610c4d906135c0565b60405180910390fd5b6000610c62600b611b25565b9050610c6e600b611b33565b610c788282611b49565b5050565b610c97838383604051806020016040528060008152506112f3565b505050565b6000610ca6610976565b8210610ce7576040517f08c379a0000000000000000000000000000000000000000000000000000000008152600401610cde90613680565b60405180910390fd5b60088281548110610d21577f4e487b7100000000000000000000000000000000000000000000000000000000600052603260045260246000fd5b90600052602060002001549050919050565b610d3b61171f565b73ffffffffffffffffffffffffffffffffffffffff16610d59611004565b73ffffffffffffffffffffffffffffffffffffffff1614610daf576040517f08c379a0000000000000000000000000000000000000000000000000000000008152600401610da6906135c0565b60405180910390fd5b80600c9080519060200190610dc5929190612a16565b5050565b600f60009054906101000a900460ff1681565b6000806002600084815260200190815260200160002060009054906101000a900473ffffffffffffffffffffffffffffffffffffffff169050600073ffffffffffffffffffffffffffffffffffffffff168173ffffffffffffffffffffffffffffffffffffffff161415610e85576040517f08c379a0000000000000000000000000000000000000000000000000000000008152600401610e7c90613540565b60405180910390fd5b80915050919050565b600381565b60008073ffffffffffffffffffffffffffffffffffffffff168273ffffffffffffffffffffffffffffffffffffffff161415610f04576040517f08c379a0000000000000000000000000000000000000000000000000000000008152600401610efb90613520565b60405180910390fd5b600360008373ffffffffffffffffffffffffffffffffffffffff1673ffffffffffffffffffffffffffffffffffffffff168152602001908152602001600020549050919050565b610f5361171f565b73ffffffffffffffffffffffffffffffffffffffff16610f71611004565b73ffffffffffffffffffffffffffffffffffffffff1614610fc7576040517f08c379a0000000000000000000000000000000000000000000000000000000008152600401610fbe906135c0565b60405180910390fd5b610fd16000611b67565b565b662386f26fc1000081565b600d60009054906101000a900473ffffffffffffffffffffffffffffffffffffffff1681565b6000600a60009054906101000a900473ffffffffffffffffffffffffffffffffffffffff16905090565b60606001805461103d9061398d565b80601f01602080910402602001604051908101604052809291908181526020018280546110699061398d565b80156110b65780601f1061108b576101008083540402835291602001916110b6565b820191906000526020600020905b81548152906001019060200180831161109957829003601f168201915b5050505050905090565b600f60009054906101000a900460ff1661110f576040517f08c379a000000000000000000000000000000000000000000000000000000000815260040161110690613600565b60405180910390fd5b6003811115611153576040517f08c379a000000000000000000000000000000000000000000000000000000000815260040161114a90613640565b60405180910390fd5b60648161115e610976565b61116891906137b0565b11156111a9576040517f08c379a00000000000000000000000000000000000000000000000000000000081526004016111a090613560565b60405180910390fd5b80662386f26fc100006111bc9190613837565b3410156111fe576040517f08c379a00000000000000000000000000000000000000000000000000000000081526004016111f5906134c0565b60405180910390fd5b600381600e60003373ffffffffffffffffffffffffffffffffffffffff1673ffffffffffffffffffffffffffffffffffffffff1681526020019081526020016000205461124b91906137b0565b111561128c576040517f08c379a000000000000000000000000000000000000000000000000000000000815260040161128390613460565b60405180910390fd5b6000611298600b611b25565b905060005b828110156112d8576112af600b611b33565b6112b93383611b49565b6112c3600b611b25565b915080806112d0906139f0565b91505061129d565b505050565b6112ef6112e861171f565b8383611c2d565b5050565b6113046112fe61171f565b836117e0565b611343576040517f08c379a000000000000000000000000000000000000000000000000000000000815260040161133a90613660565b60405180910390fd5b61134f84848484611d9a565b50505050565b6060611360826116b3565b61139f576040517f08c379a0000000000000000000000000000000000000000000000000000000008152600401611396906135e0565b60405180910390fd5b60006113a9611df6565b905060008151116113c957604051806020016040528060008152506113f4565b806113d384611e88565b6040516020016113e49291906132c8565b6040516020818303038152906040525b915050919050565b6000600560008473ffffffffffffffffffffffffffffffffffffffff1673ffffffffffffffffffffffffffffffffffffffff16815260200190815260200160002060008373ffffffffffffffffffffffffffffffffffffffff1673ffffffffffffffffffffffffffffffffffffffff16815260200190815260200160002060009054906101000a900460ff16905092915050565b600e6020528060005260406000206000915090505481565b6114b061171f565b73ffffffffffffffffffffffffffffffffffffffff166114ce611004565b73ffffffffffffffffffffffffffffffffffffffff1614611524576040517f08c379a000000000000000000000000000000000000000000000000000000000815260040161151b906135c0565b60405180910390fd5b600073ffffffffffffffffffffffffffffffffffffffff168173ffffffffffffffffffffffffffffffffffffffff161415611594576040517f08c379a000000000000000000000000000000000000000000000000000000000815260040161158b90613400565b60405180910390fd5b61159d81611b67565b50565b6115a861171f565b73ffffffffffffffffffffffffffffffffffffffff166115c6611004565b73ffffffffffffffffffffffffffffffffffffffff161461161c576040517f08c379a0000000000000000000000000000000000000000000000000000000008152600401611613906135c0565b60405180910390fd5b80600f60006101000a81548160ff02191690831515021790555050565b60007f780e9d63000000000000000000000000000000000000000000000000000000007bffffffffffffffffffffffffffffffffffffffffffffffffffffffff1916827bffffffffffffffffffffffffffffffffffffffffffffffffffffffff191614806116ac57506116ab82612035565b5b9050919050565b60008073ffffffffffffffffffffffffffffffffffffffff166002600084815260200190815260200160002060009054906101000a900473ffffffffffffffffffffffffffffffffffffffff1673ffffffffffffffffffffffffffffffffffffffff1614159050919050565b600033905090565b816004600083815260200190815260200160002060006101000a81548173ffffffffffffffffffffffffffffffffffffffff021916908373ffffffffffffffffffffffffffffffffffffffff160217905550808273ffffffffffffffffffffffffffffffffffffffff1661179a83610ddc565b73ffffffffffffffffffffffffffffffffffffffff167f8c5be1e5ebec7d5bd14f71427d1e84f3dd0314c0f7b2291e5b200ac8c7c3b92560405160405180910390a45050565b60006117eb826116b3565b61182a576040517f08c379a0000000000000000000000000000000000000000000000000000000008152600401611821906134e0565b60405180910390fd5b600061183583610ddc565b90508073ffffffffffffffffffffffffffffffffffffffff168473ffffffffffffffffffffffffffffffffffffffff161480611877575061187681856113fc565b5b806118b557508373ffffffffffffffffffffffffffffffffffffffff1661189d846107d9565b73ffffffffffffffffffffffffffffffffffffffff16145b91505092915050565b8273ffffffffffffffffffffffffffffffffffffffff166118de82610ddc565b73ffffffffffffffffffffffffffffffffffffffff1614611934576040517f08c379a000000000000000000000000000000000000000000000000000000000815260040161192b90613420565b60405180910390fd5b600073ffffffffffffffffffffffffffffffffffffffff168273ffffffffffffffffffffffffffffffffffffffff1614156119a4576040517f08c379a000000000000000000000000000000000000000000000000000000000815260040161199b90613480565b60405180910390fd5b6119af838383612117565b6119ba600082611727565b6001600360008573ffffffffffffffffffffffffffffffffffffffff1673ffffffffffffffffffffffffffffffffffffffff1681526020019081526020016000206000828254611a0a9190613891565b925050819055506001600360008473ffffffffffffffffffffffffffffffffffffffff1673ffffffffffffffffffffffffffffffffffffffff1681526020019081526020016000206000828254611a6191906137b0565b92505081905550816002600083815260200190815260200160002060006101000a81548173ffffffffffffffffffffffffffffffffffffffff021916908373ffffffffffffffffffffffffffffffffffffffff160217905550808273ffffffffffffffffffffffffffffffffffffffff168473ffffffffffffffffffffffffffffffffffffffff167fddf252ad1be2c89b69c2b068fc378daa952ba7f163c4a11628f55a4df523b3ef60405160405180910390a4611b20838383612127565b505050565b600081600001549050919050565b6001816000016000828254019250508190555050565b611b6382826040518060200160405280600081525061212c565b5050565b6000600a60009054906101000a900473ffffffffffffffffffffffffffffffffffffffff16905081600a60006101000a81548173ffffffffffffffffffffffffffffffffffffffff021916908373ffffffffffffffffffffffffffffffffffffffff1602179055508173ffffffffffffffffffffffffffffffffffffffff168173ffffffffffffffffffffffffffffffffffffffff167f8be0079c531659141344cd1fd0a4f28419497f9722a3daafe3b4186f6b6457e060405160405180910390a35050565b8173ffffffffffffffffffffffffffffffffffffffff168373ffffffffffffffffffffffffffffffffffffffff161415611c9c576040517f08c379a0000000000000000000000000000000000000000000000000000000008152600401611c93906134a0565b60405180910390fd5b80600560008573ffffffffffffffffffffffffffffffffffffffff1673ffffffffffffffffffffffffffffffffffffffff16815260200190815260200160002060008473ffffffffffffffffffffffffffffffffffffffff1673ffffffffffffffffffffffffffffffffffffffff16815260200190815260200160002060006101000a81548160ff0219169083151502179055508173ffffffffffffffffffffffffffffffffffffffff168373ffffffffffffffffffffffffffffffffffffffff167f17307eab39ab6107e8899845ad3d59bd9653f200f220920489ca2b5937696c3183604051611d8d9190613383565b60405180910390a3505050565b611da58484846118be565b611db184848484612187565b611df0576040517f08c379a0000000000000000000000000000000000000000000000000000000008152600401611de7906133e0565b60405180910390fd5b50505050565b6060600c8054611e059061398d565b80601f0160208091040260200160405190810160405280929190818152602001828054611e319061398d565b8015611e7e5780601f10611e5357610100808354040283529160200191611e7e565b820191906000526020600020905b815481529060010190602001808311611e6157829003601f168201915b5050505050905090565b60606000821415611ed0576040518060400160405280600181526020017f30000000000000000000000000000000000000000000000000000000000000008152509050612030565b600082905060005b60008214611f02578080611eeb906139f0565b915050600a82611efb9190613806565b9150611ed8565b60008167ffffffffffffffff811115611f44577f4e487b7100000000000000000000000000000000000000000000000000000000600052604160045260246000fd5b6040519080825280601f01601f191660200182016040528015611f765781602001600182028036833780820191505090505b5090505b6000851461202957600182611f8f9190613891565b9150600a85611f9e9190613a39565b6030611faa91906137b0565b60f81b818381518110611fe6577f4e487b7100000000000000000000000000000000000000000000000000000000600052603260045260246000fd5b60200101907effffffffffffffffffffffffffffffffffffffffffffffffffffffffffffff1916908160001a905350600a856120229190613806565b9450611f7a565b8093505050505b919050565b60007f80ac58cd000000000000000000000000000000000000000000000000000000007bffffffffffffffffffffffffffffffffffffffffffffffffffffffff1916827bffffffffffffffffffffffffffffffffffffffffffffffffffffffff1916148061210057507f5b5e139f000000000000000000000000000000000000000000000000000000007bffffffffffffffffffffffffffffffffffffffffffffffffffffffff1916827bffffffffffffffffffffffffffffffffffffffffffffffffffffffff1916145b80612110575061210f8261231e565b5b9050919050565b612122838383612388565b505050565b505050565b612136838361249c565b6121436000848484612187565b612182576040517f08c379a0000000000000000000000000000000000000000000000000000000008152600401612179906133e0565b60405180910390fd5b505050565b60006121a88473ffffffffffffffffffffffffffffffffffffffff16612676565b15612311578373ffffffffffffffffffffffffffffffffffffffff1663150b7a026121d161171f565b8786866040518563ffffffff1660e01b81526004016121f39493929190613337565b602060405180830381600087803b15801561220d57600080fd5b505af192505050801561223e57506040513d601f19601f8201168201806040525081019061223b9190612deb565b60015b6122c1573d806000811461226e576040519150601f19603f3d011682016040523d82523d6000602084013e612273565b606091505b506000815114156122b9576040517f08c379a00000000000000000000000000000000000000000000000000000000081526004016122b0906133e0565b60405180910390fd5b805181602001fd5b63150b7a0260e01b7bffffffffffffffffffffffffffffffffffffffffffffffffffffffff1916817bffffffffffffffffffffffffffffffffffffffffffffffffffffffff191614915050612316565b600190505b949350505050565b60007f01ffc9a7000000000000000000000000000000000000000000000000000000007bffffffffffffffffffffffffffffffffffffffffffffffffffffffff1916827bffffffffffffffffffffffffffffffffffffffffffffffffffffffff1916149050919050565b612393838383612699565b600073ffffffffffffffffffffffffffffffffffffffff168373ffffffffffffffffffffffffffffffffffffffff1614156123d6576123d18161269e565b612415565b8173ffffffffffffffffffffffffffffffffffffffff168373ffffffffffffffffffffffffffffffffffffffff16146124145761241383826126e7565b5b5b600073ffffffffffffffffffffffffffffffffffffffff168273ffffffffffffffffffffffffffffffffffffffff1614156124585761245381612854565b612497565b8273ffffffffffffffffffffffffffffffffffffffff168273ffffffffffffffffffffffffffffffffffffffff1614612496576124958282612997565b5b5b505050565b600073ffffffffffffffffffffffffffffffffffffffff168273ffffffffffffffffffffffffffffffffffffffff16141561250c576040517f08c379a000000000000000000000000000000000000000000000000000000000815260040161250390613580565b60405180910390fd5b612515816116b3565b15612555576040517f08c379a000000000000000000000000000000000000000000000000000000000815260040161254c90613440565b60405180910390fd5b61256160008383612117565b6001600360008473ffffffffffffffffffffffffffffffffffffffff1673ffffffffffffffffffffffffffffffffffffffff16815260200190815260200160002060008282546125b191906137b0565b92505081905550816002600083815260200190815260200160002060006101000a81548173ffffffffffffffffffffffffffffffffffffffff021916908373ffffffffffffffffffffffffffffffffffffffff160217905550808273ffffffffffffffffffffffffffffffffffffffff16600073ffffffffffffffffffffffffffffffffffffffff167fddf252ad1be2c89b69c2b068fc378daa952ba7f163c4a11628f55a4df523b3ef60405160405180910390a461267260008383612127565b5050565b6000808273ffffffffffffffffffffffffffffffffffffffff163b119050919050565b505050565b6008805490506009600083815260200190815260200160002081905550600881908060018154018082558091505060019003906000526020600020016000909190919091505550565b600060016126f484610e93565b6126fe9190613891565b90506000600760008481526020019081526020016000205490508181146127e3576000600660008673ffffffffffffffffffffffffffffffffffffffff1673ffffffffffffffffffffffffffffffffffffffff168152602001908152602001600020600084815260200190815260200160002054905080600660008773ffffffffffffffffffffffffffffffffffffffff1673ffffffffffffffffffffffffffffffffffffffff168152602001908152602001600020600084815260200190815260200160002081905550816007600083815260200190815260200160002081905550505b6007600084815260200190815260200160002060009055600660008573ffffffffffffffffffffffffffffffffffffffff1673ffffffffffffffffffffffffffffffffffffffff16815260200190815260200160002060008381526020019081526020016000206000905550505050565b600060016008805490506128689190613891565b90506000600960008481526020019081526020016000205490506000600883815481106128be577f4e487b7100000000000000000000000000000000000000000000000000000000600052603260045260246000fd5b906000526020600020015490508060088381548110612906577f4e487b7100000000000000000000000000000000000000000000000000000000600052603260045260246000fd5b90600052602060002001819055508160096000838152602001908152602001600020819055506009600085815260200190815260200160002060009055600880548061297b577f4e487b7100000000000000000000000000000000000000000000000000000000600052603160045260246000fd5b6001900381819060005260206000200160009055905550505050565b60006129a283610e93565b905081600660008573ffffffffffffffffffffffffffffffffffffffff1673ffffffffffffffffffffffffffffffffffffffff168152602001908152602001600020600083815260200190815260200160002081905550806007600084815260200190815260200160002081905550505050565b828054612a229061398d565b90600052602060002090601f016020900481019282612a445760008555612a8b565b82601f10612a5d57805160ff1916838001178555612a8b565b82800160010185558215612a8b579182015b82811115612a8a578251825591602001919060010190612a6f565b5b509050612a989190612a9c565b5090565b5b80821115612ab5576000816000905550600101612a9d565b5090565b6000612acc612ac784613700565b6136db565b905082815260208101848484011115612ae457600080fd5b612aef84828561394b565b509392505050565b6000612b0a612b0584613731565b6136db565b905082815260208101848484011115612b2257600080fd5b612b2d84828561394b565b509392505050565b600081359050612b4481614172565b92915050565b600081359050612b5981614189565b92915050565b600081359050612b6e816141a0565b92915050565b600081519050612b83816141a0565b92915050565b600082601f830112612b9a57600080fd5b8135612baa848260208601612ab9565b91505092915050565b600082601f830112612bc457600080fd5b8135612bd4848260208601612af7565b91505092915050565b600081359050612bec816141b7565b92915050565b600060208284031215612c0457600080fd5b6000612c1284828501612b35565b91505092915050565b60008060408385031215612c2e57600080fd5b6000612c3c85828601612b35565b9250506020612c4d85828601612b35565b9150509250929050565b600080600060608486031215612c6c57600080fd5b6000612c7a86828701612b35565b9350506020612c8b86828701612b35565b9250506040612c9c86828701612bdd565b9150509250925092565b60008060008060808587031215612cbc57600080fd5b6000612cca87828801612b35565b9450506020612cdb87828801612b35565b9350506040612cec87828801612bdd565b925050606085013567ffffffffffffffff811115612d0957600080fd5b612d1587828801612b89565b91505092959194509250565b60008060408385031215612d3457600080fd5b6000612d4285828601612b35565b9250506020612d5385828601612b4a565b9150509250929050565b60008060408385031215612d7057600080fd5b6000612d7e85828601612b35565b9250506020612d8f85828601612bdd565b9150509250929050565b600060208284031215612dab57600080fd5b6000612db984828501612b4a565b91505092915050565b600060208284031215612dd457600080fd5b6000612de284828501612b5f565b91505092915050565b600060208284031215612dfd57600080fd5b6000612e0b84828501612b74565b91505092915050565b600060208284031215612e2657600080fd5b600082013567ffffffffffffffff811115612e4057600080fd5b612e4c84828501612bb3565b91505092915050565b600060208284031215612e6757600080fd5b6000612e7584828501612bdd565b91505092915050565b612e87816138d7565b82525050565b612e96816138c5565b82525050565b612ea5816138e9565b82525050565b6000612eb682613762565b612ec08185613778565b9350612ed081856020860161395a565b612ed981613b26565b840191505092915050565b6000612eef8261376d565b612ef98185613794565b9350612f0981856020860161395a565b612f1281613b26565b840191505092915050565b6000612f288261376d565b612f3281856137a5565b9350612f4281856020860161395a565b80840191505092915050565b6000612f5b602b83613794565b9150612f6682613b37565b604082019050919050565b6000612f7e603283613794565b9150612f8982613b86565b604082019050919050565b6000612fa1602683613794565b9150612fac82613bd5565b604082019050919050565b6000612fc4602583613794565b9150612fcf82613c24565b604082019050919050565b6000612fe7601c83613794565b9150612ff282613c73565b602082019050919050565b600061300a601783613794565b915061301582613c9c565b602082019050919050565b600061302d602483613794565b915061303882613cc5565b604082019050919050565b6000613050601983613794565b915061305b82613d14565b602082019050919050565b6000613073601f83613794565b915061307e82613d3d565b602082019050919050565b6000613096602c83613794565b91506130a182613d66565b604082019050919050565b60006130b9603883613794565b91506130c482613db5565b604082019050919050565b60006130dc602a83613794565b91506130e782613e04565b604082019050919050565b60006130ff602983613794565b915061310a82613e53565b604082019050919050565b6000613122602783613794565b915061312d82613ea2565b604082019050919050565b6000613145602083613794565b915061315082613ef1565b602082019050919050565b6000613168602c83613794565b915061317382613f1a565b604082019050919050565b600061318b602083613794565b915061319682613f69565b602082019050919050565b60006131ae602f83613794565b91506131b982613f92565b604082019050919050565b60006131d1602c83613794565b91506131dc82613fe1565b604082019050919050565b60006131f4602183613794565b91506131ff82614030565b604082019050919050565b6000613217601b83613794565b91506132228261407f565b602082019050919050565b600061323a600083613789565b9150613245826140a8565b600082019050919050565b600061325d603183613794565b9150613268826140ab565b604082019050919050565b6000613280602c83613794565b915061328b826140fa565b604082019050919050565b60006132a3600f83613794565b91506132ae82614149565b602082019050919050565b6132c281613941565b82525050565b60006132d48285612f1d565b91506132e08284612f1d565b91508190509392505050565b60006132f78261322d565b9150819050919050565b60006020820190506133166000830184612e8d565b92915050565b60006020820190506133316000830184612e7e565b92915050565b600060808201905061334c6000830187612e8d565b6133596020830186612e8d565b61336660408301856132b9565b81810360608301526133788184612eab565b905095945050505050565b60006020820190506133986000830184612e9c565b92915050565b600060208201905081810360008301526133b88184612ee4565b905092915050565b600060208201905081810360008301526133d981612f4e565b9050919050565b600060208201905081810360008301526133f981612f71565b9050919050565b6000602082019050818103600083015261341981612f94565b9050919050565b6000602082019050818103600083015261343981612fb7565b9050919050565b6000602082019050818103600083015261345981612fda565b9050919050565b6000602082019050818103600083015261347981612ffd565b9050919050565b6000602082019050818103600083015261349981613020565b9050919050565b600060208201905081810360008301526134b981613043565b9050919050565b600060208201905081810360008301526134d981613066565b9050919050565b600060208201905081810360008301526134f981613089565b9050919050565b60006020820190508181036000830152613519816130ac565b9050919050565b60006020820190508181036000830152613539816130cf565b9050919050565b60006020820190508181036000830152613559816130f2565b9050919050565b6000602082019050818103600083015261357981613115565b9050919050565b6000602082019050818103600083015261359981613138565b9050919050565b600060208201905081810360008301526135b98161315b565b9050919050565b600060208201905081810360008301526135d98161317e565b9050919050565b600060208201905081810360008301526135f9816131a1565b9050919050565b60006020820190508181036000830152613619816131c4565b9050919050565b60006020820190508181036000830152613639816131e7565b9050919050565b600060208201905081810360008301526136598161320a565b9050919050565b6000602082019050818103600083015261367981613250565b9050919050565b6000602082019050818103600083015261369981613273565b9050919050565b600060208201905081810360008301526136b981613296565b9050919050565b60006020820190506136d560008301846132b9565b92915050565b60006136e56136f6565b90506136f182826139bf565b919050565b6000604051905090565b600067ffffffffffffffff82111561371b5761371a613af7565b5b61372482613b26565b9050602081019050919050565b600067ffffffffffffffff82111561374c5761374b613af7565b5b61375582613b26565b9050602081019050919050565b600081519050919050565b600081519050919050565b600082825260208201905092915050565b600081905092915050565b600082825260208201905092915050565b600081905092915050565b60006137bb82613941565b91506137c683613941565b9250827fffffffffffffffffffffffffffffffffffffffffffffffffffffffffffffffff038211156137fb576137fa613a6a565b5b828201905092915050565b600061381182613941565b915061381c83613941565b92508261382c5761382b613a99565b5b828204905092915050565b600061384282613941565b915061384d83613941565b9250817fffffffffffffffffffffffffffffffffffffffffffffffffffffffffffffffff048311821515161561388657613885613a6a565b5b828202905092915050565b600061389c82613941565b91506138a783613941565b9250828210156138ba576138b9613a6a565b5b828203905092915050565b60006138d082613921565b9050919050565b60006138e282613921565b9050919050565b60008115159050919050565b60007fffffffff0000000000000000000000000000000000000000000000000000000082169050919050565b600073ffffffffffffffffffffffffffffffffffffffff82169050919050565b6000819050919050565b82818337600083830152505050565b60005b8381101561397857808201518184015260208101905061395d565b83811115613987576000848401525b50505050565b600060028204905060018216806139a557607f821691505b602082108114156139b9576139b8613ac8565b5b50919050565b6139c882613b26565b810181811067ffffffffffffffff821117156139e7576139e6613af7565b5b80604052505050565b60006139fb82613941565b91507fffffffffffffffffffffffffffffffffffffffffffffffffffffffffffffffff821415613a2e57613a2d613a6a565b5b600182019050919050565b6000613a4482613941565b9150613a4f83613941565b925082613a5f57613a5e613a99565b5b828206905092915050565b7f4e487b7100000000000000000000000000000000000000000000000000000000600052601160045260246000fd5b7f4e487b7100000000000000000000000000000000000000000000000000000000600052601260045260246000fd5b7f4e487b7100000000000000000000000000000000000000000000000000000000600052602260045260246000fd5b7f4e487b7100000000000000000000000000000000000000000000000000000000600052604160045260246000fd5b6000601f19601f8301169050919050565b7f455243373231456e756d657261626c653a206f776e657220696e646578206f7560008201527f74206f6620626f756e6473000000000000000000000000000000000000000000602082015250565b7f4552433732313a207472616e7366657220746f206e6f6e20455243373231526560008201527f63656976657220696d706c656d656e7465720000000000000000000000000000602082015250565b7f4f776e61626c653a206e6577206f776e657220697320746865207a65726f206160008201527f6464726573730000000000000000000000000000000000000000000000000000602082015250565b7f4552433732313a207472616e736665722066726f6d20696e636f72726563742060008201527f6f776e6572000000000000000000000000000000000000000000000000000000602082015250565b7f4552433732313a20746f6b656e20616c7265616479206d696e74656400000000600082015250565b7f4578636565646564206d6178207065722077616c6c6574000000000000000000600082015250565b7f4552433732313a207472616e7366657220746f20746865207a65726f2061646460008201527f7265737300000000000000000000000000000000000000000000000000000000602082015250565b7f4552433732313a20617070726f766520746f2063616c6c657200000000000000600082015250565b7f45746865722076616c75652073656e74206973206e6f7420636f727265637400600082015250565b7f4552433732313a206f70657261746f7220717565727920666f72206e6f6e657860008201527f697374656e7420746f6b656e0000000000000000000000000000000000000000602082015250565b7f4552433732313a20617070726f76652063616c6c6572206973206e6f74206f7760008201527f6e6572206e6f7220617070726f76656420666f7220616c6c0000000000000000602082015250565b7f4552433732313a2062616c616e636520717565727920666f7220746865207a6560008201527f726f206164647265737300000000000000000000000000000000000000000000602082015250565b7f4552433732313a206f776e657220717565727920666f72206e6f6e657869737460008201527f656e7420746f6b656e0000000000000000000000000000000000000000000000602082015250565b7f507572636861736520776f756c6420657863656564206d617820746f6b656e7360008201527f20737570706c7900000000000000000000000000000000000000000000000000602082015250565b7f4552433732313a206d696e7420746f20746865207a65726f2061646472657373600082015250565b7f4552433732313a20617070726f76656420717565727920666f72206e6f6e657860008201527f697374656e7420746f6b656e0000000000000000000000000000000000000000602082015250565b7f4f776e61626c653a2063616c6c6572206973206e6f7420746865206f776e6572600082015250565b7f4552433732314d657461646174613a2055524920717565727920666f72206e6f60008201527f6e6578697374656e7420746f6b656e0000000000000000000000000000000000602082015250565b7f69734d696e74416374697665206d7573742062652061637469766520746f206d60008201527f696e74206e6577204e4654730000000000000000000000000000000000000000602082015250565b7f4552433732313a20617070726f76616c20746f2063757272656e74206f776e6560008201527f7200000000000000000000000000000000000000000000000000000000000000602082015250565b7f4578636565646564206d617820746f6b656e2070757263686173650000000000600082015250565b50565b7f4552433732313a207472616e736665722063616c6c6572206973206e6f74206f60008201527f776e6572206e6f7220617070726f766564000000000000000000000000000000602082015250565b7f455243373231456e756d657261626c653a20676c6f62616c20696e646578206f60008201527f7574206f6620626f756e64730000000000000000000000000000000000000000602082015250565b7f7769746864726177206661696c65640000000000000000000000000000000000600082015250565b61417b816138c5565b811461418657600080fd5b50565b614192816138e9565b811461419d57600080fd5b50565b6141a9816138f5565b81146141b457600080fd5b50565b6141c081613941565b81146141cb57600080fd5b5056fea2646970667358221220c0ca4d204660b4eadaa14e3b444f37fc0a32018b4d1c6e230838f23285363e6064736f6c63430008040033",
  "linkReferences": {},
  "deployedLinkReferences": {}
}